:10035F0041542B43574D4F44453D330A0041542BD5
:10036F005253540A0041542B43574A41503D2244A3
:10037F00514743222C226E6A7731323334352200B3
:10038F000A0041542B43495053544152543D225477
:10039F004350222C223139322E3136382E312E3124
:1003AF003033222C393739300041542B4349504DCB
:1003BF004F44453D310A0041542B43495053454E5C
:1003CF00440A0048656C6C6F2C55736572210A00E6
:1003DF00596F7572206368696C64206D617920773D
:0903EF00616B65207570210A00A4
:1007D000012200053C525332333205275253323343
:0107E00032E6
:040797007FB87E0B9E
:10079B00EF1FAA0670011E4A60137C007D73C3EC29
:0D07AB006480948040EAED1D70F41C80F124
:0107B800221E
:100744001203F8F54B900001120411F54C900002CD
:10075400120411F54D900003120411F54E9000049B
:0C076400120411F54F753301854B9922EA
:1007B900D3EF9400EE9400400DE4FD0DBD1BFCEF5A
:0607C9001F70ED1E80EA26
:0107CF002207
:0C07E2001508150815081508150815085D
:0107EE0022E8
:10068000E4FF753202209707AE320532EE70F612A3
:1006900007E21207E21207E2E4F5393097037539F1
:1006A00001753202309707AE320532EE70F6E53250
:1006B0006401600EE54525E0F545E53942450FBF8B
:0206C00008C070
:0106C2002215
:1006C300E4FF753202209607AE320532EE70F61261
:1006D30007E21207E21207E2E4F5393096037539AF
:1006E30001753202309607AE320532EE70F6E5320E
:1006F3006401600EE54525E0F545E53942450FBF48
:0207030008C02C
:0107050022D1
:10059A00C2977FB47E001207B9D2971207E21207F8
:1005AA00E21207E21207E2D297209756753202202A
:1005BA009707AF320532EF70F6753202309707AF00
:1005CA00320532EF70F612068085454212068085A2
:1005DA00454312068085452C12068085452D120654
:1005EA0080854538D297E52C252D25422543F539B6
:1005FA00B5380F85433B85423A852C25852D2685BE
:03060A003834225F
:10060D00C2967FB47E001207B9D2961207E2120786
:10061D00E21207E21207E2D29620965675320220B8
:10062D009607AF320532EF70F6753202309607AF8E
:10063D00320532EF70F61206C38545421206C385A8
:10064D0045431206C385452C1206C385452D12065A
:10065D00C3854538D296E52C252D25422543F53900
:10066D00B5380F854223854324852C35852D378557
:03067D00384122DF
:10051200758920758DFD758BFDD28E759850E4F529
:100522008775A890D2991207977BFF7A03795F1299
:1005320000651207977BFF7A03796C1200657F10C2
:100542007E2712079B7BFF7A0379741200657BFF7B
:100552007A03798F1200657F107E2712079B7BFF3B
:100562007A0379911200657BFF7A03798F12006515
:100572001207977BFF7A0379B81200651207977BFF
:10058200FF7A0379C61200657FE87E0312079B7B20
:08059200FF7A0379D202006533
:10070600D2A11205127FE87E0312079B12059A8575
:100716003A3C853B3D85253E85263F85344012067D
:100726000D85232785242885352985372A85412B5C
:0E07360020A1D27BFF7A0379DF12006580C715
:0300000002048671
:0C048600787FE4F6D8FD75814F0204CDAC
:1003F800BB010689828A83E0225002E722BBFE0203
:09040800E32289828A83E4932235
:10041100BB010CE58229F582E5833AF583E02250A0
:1004210006E92582F8E622BBFE06E92582F8E222EA
:0D043100E58229F582E5833AF583E4932204
:10000300E517240BF8E60517227808300702780B6A
:10001300E475F0011204500203F82000EB7F2ED2A6
:10002300008018EF540F2490D43440D4FF30040BD5
:10003300EF24BFB41A0050032461FFE518600215D2
:1000430018051BE51B7002051A30070D7808E475C7
:10005300F001120450EF02043E0207707403D2074A
:100063008003E4C207F5178B088A09890AE4F518A7
:10007300F51AF51BE51860077F2012003E80F57521
:1000830019FFC201C200C202C203C205C206C208EE
:1000930012000CFF700D3007057F0012004FAF1BDD
:1000A300AE1A22B4255FC2D5C20412000CFF24D0BD
:1000B300B40A00501A75F00A781830D50508B6FF4F
:1000C3000106C6A426F620D5047002D20380D924E3
:1000D300CFB41A00EF5004C2E5D20402024FD2019A
:1000E30080C6D20080C0D20280BCD2D580BAD205ED
:1000F30080B47F2012003E2002077401B51800402F
:10010300F1120003FF12003E020077D208D20680EC
:1001130095120003FB120003FA120003F94A4B7015
:100123000679207A037BFF20022EE518602A7E00E1
:100133008E8275830012041160060EEE651970F04D
:10014300C2D5EBC0E0EAC0E0E9C0E0EE120296D00F
:10015300E0F9D0E0FAD0E0FB1203F8FF60AAEBC0AD
:10016300E0EAC0E0E9C0E012003ED0E02401F9D0AB
:10017300E03400FAD0E0FBE5190460DCD519D9803E
:10018300877BFF7A027992D202809C791080027970
:1001930008C206C2088008D2D5790A8004790AC247
:1001A300D5E519047002F519E4FAFDFEFF12000308
:1001B300FC7B08200113120003FD7B1030000A12A0
:1001C3000003FE120003FF7B20EC3382D592D5504F
:1001D30013C3E43000069FFFE49EFEE42001039D69
:1001E300FDE49CFCE4CBF8C201EC700CCFCECDCC8B
:1001F300E824F8F870F38017C3EF33FFEE33FEED16
:1002030033FDEC33FCEB33FB994002FB0FD8E9EBF6
:10021300300105F8D0E0C448B201C0E00AEC4D4E0D
:100223004F78207B0070C2EAB5190040BCC0E012D1
:100233000298D0F0D0E0200104C4C0E0C4B201C0F1
:10024300F0120027D0F0D5F0EB0200771204600122
:100253001453018E5800E54C00E14201924F019A7C
:0F02630044019A4900FA4301A0550184460184E1
:100272004501844703405000E92D00ED2E01102B6B
:1002820000F123010E2003292A00A94800000108D9
:100292003F3F3F00790AA2D5200314300509B91067
:1002A200020404B9080104A2D52006025001042068
:1002B20002689202B518005034C0E07F2030031962
:1002C2007F30A20272067205500F1202EFC202C202
:1002D20006C205C2087F30800F300503E9C0E01274
:1002E200003E300503D0E0F9D0E0B518CC30051758
:1002F2007F30B9100C12003E7F583004077F78809F
:1003020003B9080312003E3002057F2D02003E7F32
:10031200202008F87F2B2006F322920280CF286E3D
:10032200756C6C2900D2011200033001F8C2017809
:100332001830D50108F60200A92D50434958120081
:10034200032403B405004001E490033B9312002F01
:0D035200743A12002FD20375180402018EB8
:10049200020706E493A3F8E493A34003F68001F273
:1004A20008DFF48029E493A3F85407240CC8C3336B
:1004B200C4540F4420C8834004F456800146F6DF3A
:1004C200E4800B01020408102040809007D0E47EF3
:1004D200019360BCA3FF543F30E509541FFEE4932F
:1004E200A360010ECF54C025E060A840B8E493A3F6
:1004F200FAE493A3F8E493A3C8C582C8CAC583CA21
:10050200F0A3C8C582C8CAC583CADFE9DEE780BED8
:0107E1000017
:10043E00BB010689828A83F0225002F722BBFE019D
:02044E00F32297
:10045000FAE6FB0808E6F925F0F618E6CA3AF622AD
:10046000D083D082F8E4937012740193700DA3A32B
:1004700093F8740193F5828883E47374029368603F
:06048000EFA3A3A380DF3F
:10077000EFB40A07740D12077B740A309811A89918
:10078000B8130CC2983098FDA899C298B811F630E9
:0707900099FDC299F59922C1
:00000001FF
